:200000000C947B32189518951895189518951895189518950C94083018951895189518959F
:200020001895189518951895189518951895189518951895189518951895189518951895F0
:200040000C94BD1B1895189518951895189518951895189518951895881348268813881327
:2000600088138813960290028A0284027E02790274026F026A02650260022524212C012C34
:2000800001C800A4019A0168017C0172014A01FF0000DE070A002306600684068706B50664
:2000A000FD06210752078A07BA070000E11E0F00D51B2C1C551C961CE01C0D1D3B1D681DFE
:2000C000971DC41DF21D181E571EA41ED61E00E000932906E0E7F6E000810D7F008301E06B
:2000E0000093270600E000939406B5D100E000935506EBE5F6E000830183B7D0969A939A4E
:20010000DF9A08959398969ADF98089500E0EBE5F6E00083018300935506A7D000E00093F5
:20012000940699D19398969ADF9A089593989698DF9A089500915D0610E044E650E00E94FB
:20014000B5322091BF06213031F020E335E7E6E6F6E020833183ECEDF6E020813181E0E6F0
:20016000F6E0408151812417350758F4EEE6F6E020813181E6E6F6E04081518124173507AA
:20018000A8F0209156062223C9F4E7E5F6E0208123952083263090F024E62093550621E02B
:2001A0002093560620E02093210608C020915706222321F0E7E5F6E02A952083E0E6F6E08A
:2001C00020813181E2EEF6E0408151812417350790F0E4E6F6E0208131810217130758F02E
:2001E000E6E6F6E020813181EEE6F6E0408151812417350750F4EBE5F6E000811181012B2D
:20020000A1F10081015010402EC0EBE5F6E040815181403223E0520740F59A012F5F3F4F49
:2002200020833183E4E6F6E0208131812C5E3F4F2017310718F024E62093550620915606C0
:20024000222399F4208131812E5C3F4F2017310760F4009155060A3040F4EBE5F6E000811D
:2002600011810D5F1F4F00831183EBE5F6E020813181323038F02FEF31E0008111810F5FC8
:20028000114002C000E010E053E0532359BD28BD33E031233BBD0ABD089500915D0610E030
:2002A00044E650E00E94B532EEE5F6E000831183ECEDF6E000811181E0E6F6E020813181EA
:2002C0000217130788F4009156060023A9F4E7E5F6E0008103950083063020F001E00093CA
:2002E00056060AC000E0FBCF00915706002321F0E7E5F6E00A950083E2EEF6E0008111818F
:200300000F5F1F4FE0E6F6E0208131810217130758F0EEE5F6E000811181E4E6F6E020819A
:2003200031810217130750F4EBE5F6E000811181012B89F00081015010400BC0EBE5F6E0A3
:2003400020813181283002E0300728F489010F5F1F4F0083118300E009BD08BD11811370C0
:200360001BBD00810ABD089500915D06002319F401E000935D0610E044E650E00E94B532F2
:20038000EEE5F6E000831183E4E6F6E0008111810D5F1F4FEEE5F6E02081318102171307E1
:2003A00068F4EBE5F6E020813181283002E0300728F489010F5F1F4F00831183EEE5F6E035
:2003C000008111810D5F1F4FE4E6F6E0208131810217130758F4EBE5F6E000811181012BD9
:2003E00029F00081015010400083118300E009BD08BDEBE5F6E0118113701BBD00810ABD65
:200400000895792F682F00912706013019F488E893E102C080EE91E0ECEDF6E0208131817D
:20042000243600E0300718F44AE050E006C089014AE050E00E94CB32A8018C010E94CB32C7
:20044000C80101968536904008F084E680936C06862F972F0895E4E9F6E0008100FF02C0CD
:20046000AE9A01C0AE98008101FF02C0AF9A01C0AF98008102FF02C0DD9A01C0DD98008127
:2004800003FF02C0909A01C09098008104FF02C0929A01C09298008105FF02C0979A089513
:2004A000979808959A938A9310E060E040ED57E028EB3BE00091F705023021F448EE53E027
:2004C00020ED37E000E00093170672E0079FF001E75BF94F008011804015510570F4CA010A
:2004E0008C509E4F079FF001E75BF94F0080118080159105A0F07AE010C0079FF001E75B43
:20050000F94F008011800416150648F47091B006701728F0002319F07CE07093170672E0C1
:20052000079FF001E75BF94F008011804015510508F4602F079FF001E75BF94F0080118021
:2005400071E3071671E1170618F07BE0709317060023E9F0802F90E00197880F991FFC0139
:20056000E75BF94F008011800416150680F4CA018C509E4F72E0079FF001E75BF94F0080B0
:2005800011808015910518F47CE0709317060395063008F49ACF00917206013079F4E9E470
:2005A000F6E0008011800416150628F0028013800416150618F40CE0009317060091B006CE
:2005C000601710F06093B00640E157E260E0EEE6F6E06083618300E062E0069FF001E75BF6
:2005E000F94F608171814617570790F062E0069FF001E75BF94F608171816217730740F04D
:2006000012E0019FF001E75BF94F40815181102F62E0069FF001E75BF94F60817181EEE6F2
:20062000F6E0008011806015710558F062E0069FF001E75BF94F60817181EEE6F6E06083DE
:2006400071830395063040F261E000919206043100E030F110939306CA010A9662E0069F78
:20066000F001E75BF94F608171818617970788F462E0069FF001E75BF94F608171816217C7
:20068000730738F060919206683118F060E06093920603950630F0F200E00093940631C015
:2006A0004091930612E0419FF001E75BF94F40815181019FF001E75BF94F80819181059627
:2006C0004817590798F4019FF001E75BF94F408151814217530750F010919306101731F0AC
:2006E000E4E9F6E01081162B108307C0162F1095E4E9F6E0408141234083660F0395063073
:2007000078F2A9DE899199910895AD9800E0009326065BD000E61AEE0E94703100E61AEED9
:200720000E94703100E61AEE0E94703100E117E20E94703108E10093260647D061D000E157
:2007400017E20E94703108E1009326063ED058D000E117E20E94703108E10093260635D0B5
:200760004FD000E117E20E94703100E1009326062CD046D000E117E20E94703108E24BD069
:2007800000E117E20E94703108E045D000E117E20E94703101E03FD000E117E20E94703115
:2007A00006E039D000E117E20E9470310FE033D000E117E20E94703100E117E20E94703101
:2007C00047D000E117E20C947031E6E2F6E0008106FF02C0A89A01C0A898008105FF02C077
:2007E000A99A01C0A998008104FF02C0AA9A01C0AA98008103FF02C0AB9A0895AB98089520
:200800000FE010E00E947031AC9A0FE010E00E947031AC9808958A93802FAD98007F069542
:2008200000932606D2DFECDF0CE810E00E9470318F70880F880F880F80932606C6DFE0DFEF
:2008400008E813E10E9470318991089501E0E3CF0CE0E1DF08E813E10C947031109123068C
:2008600012951F70009123060F7011F0105401C01058012FD0CF8A93802FAD9A007F06957F
:2008800000932606A2DFBCDF0CE810E00E9470318F70880F880F880F8093260696DFB0DF4F
:2008A0000CE810E00E94703189910895BA93AA93D801D4DF02C00D91DEDF0C910023D9F797
:2008C000A991B99108950E9493332801C7DF820140E157E20E94CB32802F40E157E20E9499
:2008E000B532401A510A805D80931C07820148EE53E00E94CB32802F48EE53E00E94B5321D
:20090000401A510A820144E650E00E94CB32A02F44E650E00E94B532401A510A82014AE092
:2009200050E00E94CB32142D2AE0029F1019105D10931807805D80931B07A05DA0931A0741
:20094000005D00931907E6E00C94A033BCDF00911B07003309F400E28EDF00911A0700339C
:2009600039F400911B07003311F000E301C000E282DF00911907003359F400911B07003365
:2009800031F400911A07003311F400E201C000E372DF009118076FCF10E095DF009119076E
:2009A000003309F400E267DF0091180764CF10E08ADF009119075FDF009118075CCF83DF77
:2009C00000911A07003309F400E255DF00911907003339F400911A07003311F000E301C084
:2009E00000E249DF0091180746CF6DDF00911B0742DF00911A073FDF009119073CDF00E28A
:200A00003ACF0E949533D80140E157E20E94CB32C80140E157E20E94B532A01BB10B8D01E0
:200A200052DF082F092B19F0082F005D24DF00911B0721DF00911A071EDF009119071BDF6D
:200A40000091180718DF0DE616DF01E414DF892B11F408E610DFE4E00C94A23334DF0091BC
:200A60001A07003309F400E206DF0091190703DF0EE201DF00911807FEDE06E5FCCE23DFB8
:200A800000911B07003309F400E2F5DE00911A07F2DE0EE2F0DE00911907EDDE0091180752
:200AA000EADE06E5E8CE10E00EDF00911907E3DE0EE2E1DE00911807DEDE01E4DCCE0B5F6A
:200AC0001F4F4AE050E00E94CB32FDDE00911A07D2DE0EE2D0DE00911907CDDE00911807C8
:200AE000CACE0091BF06002300E00093230649F408E313E0DBDE01E00093230607E213E0FC
:200B0000D5CE0FE412E0D2DE01E0009323060093FC050FEF0093FB0507E412E0C7DE01E771
:200B2000009323060091BF06013061F4EEE6F0E01091F70502E0109FE00DF11D0591149115
:200B4000B5DE03C00AE0009372060091BF06023019F402E412E0AADE0091BF06033019F4BF
:200B60000DE312E0A3DE0091BF06043019F408E312E09CDE0091BF06002341F0053030F421
:200B800001EB0093230602E312E090DE0091BF06053019F403E513E089DE0091BF06063002
:200BA00019F409E413E082DE08950091BF06002309F421D00091BF06013009F405D20091F8
:200BC000BF06023011F402E040D30091BF06033011F403E03AD30091BF06043009F488D4C3
:200BE0000091BF06053009F4DCD70091BF06063009F42AD708959A938A93E2EDF6E0008123
:200C000003FF19C0E3ECF6E00081039500830091C106043021F0063038F0093028F40091D7
:200C2000C306033040F004C00091C306023018F000E00093C30609E0CED50091C106E0E947
:200C4000F0E00C943A338091F705EEE6F0E002E0809FE00DF11D0591149128DE01E0009355
:200C6000230600E213E022DE01EC0093230600917506073048F0E4E7F0E002E0809FE00DC9
:200C8000F11D0591149102C00CE113E00FDE0091C306002391F0E2EDF6E0008102FF05C092
:200CA000823010F4839501C080E0008101FF05C0882311F08A9501C082E08093F70581C1C0
:200CC0000DE013E0F3DD01E00093230604E013E0EDDD01EA0093230600917506073020F02C
:200CE0000091F805E6D403C00CE113E0DFDD0091C306002309F465C12091F8051CE305E01B
:200D0000DCD50093F8055DC181E002E0F7D40091C106033019F480E003E0F0D400917506BB
:200D2000073090E0FC0128F0E051FA4F008180D40BC0E051FA4F0081053018F407EF12E0B9
:200D400002C001E013E0B2DD0091C306002309F438C1FC01E051FA4F208114E104E0ADD588
:200D6000FC01E051FA4F00832CC1E0EFF5E0068100FD07C00091C306023019F400E0009391
:200D8000C30607EE12E092DD01E00093230600917506073018F001E07CD40BC0E0EFF5E0AC
:200DA000068100FF03C009ED12E002C007EF12E07DDD0091C306013011F401E04DD501EA80
:200DC0000093230600917606073020F00091F2054FD406C001ED0093230601E013E066DDD1
:200DE0000091C306023009F0ECC02091F20510E504E163D50093F205E4C00EEC12E056DDBB
:200E000001E00093230605EC12E050DD01EA0093230600917506073020F00091F30549D485
:200E200003C00CE113E042DD0091C306002309F4C8C02091F3051CE300E03FD50093F305C7
:200E4000C0C008EB12E032DD01E00093230600917506073018F002E0F7D303C00CE113E0E7
:200E600025DD0091C306013011F402E0F5D401E90093230600917606073020F00091F405B1
:200E800020D403C003EB12E011DD0091C306023009F097C02091F40518E401E00ED50093F4
:200EA000F4058FC002EA12E001DD01E00093230600917506073018F004E0C6D303C00CE119
:200EC00013E0F4DC0091C306013011F404E0C4D401E80093230600917606073030F0E9EF62
:200EE000F5E000811181F5D303C00CE912E0DEDC0091C306023009F064C0E9EFF5E04081C7
:200F0000518128E833E101E0EFD4E9EFF5E00083118357C00BEB11E0C9DC00ED0093230627
:200F200000917506073018F008E098D303C00CE113E0BCDC0091C306013011F408E08CD400
:200F400001E00093230604EB11E0B0DC01ED0093230600917606073018F000E17FD303C09C
:200F60000CE113E0A3DC0091C306023051F500E173D427C004EA11E099DC01E00093230640
:200F80000CE911E093DC01EB0093230600917506073028F00091F50510E060DD03C003EB90
:200FA00012E084DC0091C306002359F02091F5051EE604E682D40093F50503C000E0009367
:200FC000C1068991999108950E94963391E0A1E081E0E2EDF6E0008103FF0AC0E3ECF6E014
:200FE000008103950083033018F000E00093C30604E0F1D3EEE6F0E01091F70502E0109F64
:20100000E00DF11D0591149151DC00E234DC00E5009323060091C106045020F0005009F4D1
:20102000BBC00CC10091C106002359F405E911E03DDC00E0009372069091E205A091E3059C
:2010400080E00091C106013089F40DE811E02EDC01E0009372060091E505023018F402E0B3
:201060000093E5059091E405A02F82E00091C106023059F404E811E019DC02E00093720622
:201080009091E605A091E70580E00091C106033059F40CE711E00ADC03E000937206909116
:2010A000E805A091E90581E001E00093230600917506073018F0092FF6DC03C00CE113E02E
:2010C000F5DB0091C306013059F40091C1060330292F11F41AE001C012E301E0EED3902F6F
:2010E00001E700932306009176060730AA23E0F051F40091C106033019F408E611E01AC0D5
:2011000002E711E017C0EAE7F0E00091F70510E0E00FF11F0491A09F8001A0DC01EC0093B0
:2011200023060A2FDDD207C019F003EB12E002C007EF12E0BBDB0091C306023059F4009144
:20114000C10603302A2F16E011F401E001C0082FB4D3A02F0091C106002329F49093E20570
:20116000A093E30514C0013029F49093E405A093E5050DC0023029F49093E605A093E705C0
:2011800006C0033021F49093E805A093E9059093AD06A093AE0655C004E0009372060EE55C
:2011A00011E084DB01E00093230600917506073020F00091EA0577DC03C00CE113E076DB28
:2011C0000091C306013039F42091EA051AE001E074D30093EA0501E7009323060091760662
:2011E0000730A8F00091F705023011F444E101C04EE150E00091EB0510E00E94B5322EDC13
:2012000001EC009323060091EB056AD203C003EB12E04CDB0091C306023039F42091EB0544
:2012200016E001E04AD30093EB050091EA050093AD060091EB050093AE0603C000E0009373
:20124000C106EED3E3E00C94A3330E949133702EE2EDF6E0008103FF15C0E3ECF6E00081A6
:2012600003950083033018F000E00093C3060091C106002339F40091C306023018F000E0C0
:201280000093C30602E0A7D203E07016B1F40DE312E00CDB4090DD055090DE05EFEDF5E09A
:2012A00080819181A091B3066090E105A093790660927C06B091B40615C002E412E0F6DABD
:2012C0004090D8055090D905EAEDF5E080819181A091B1066090DC05A093790660927C0605
:2012E000B091B20600E2C7DA00E5009323060091C106005039F00A9509F45EC00A9509F4AA
:2013000097C0CFC005E911E0D1DA00EC009323060091BF06053041F4BB2319F00CE411E02D
:201320000AC000E511E007C0BB2319F004E511E002C009E511E0BADA01E000932306BB23D5
:2013400019F008E311E002C002E411E0AFDA01EC0093230600917506073018F0042DA3DBE3
:2013600003C00CE113E0A2DA0091C3060023B9F00091D6060630B9F4E4EAF6E0008103951B
:201380000083053108F490C0BB2311F0B0E001C0B1E02CE231E000E911E00E94A53100E036
:2013A0000093A40681C000E00093A406242D12E301E083D2402E78C00EE511E077DA01E05A
:2013C0000093230600917506073018F0052D6BDB03C00CE113E06ADA0091C306013029F4FF
:2013E000252D1AE001E069D2502E01EB00932306009176060730082F092B38F019F08C01F2
:201400002DDB0AC00CE212E006C019F003EB12E002C00CE912E04ADA0091C306023009F019
:2014200043C0AC012AEF30E000E05ED2C8013CC006E212E03BDA01E0009323060091750666
:20144000073040F0AA2319F005EC12E005C004E112E002C00DE112E029DA0091C3060130A0
:2014600049F40091D206067029F0AA2311F0A0E001C0A1E001EE00932306009176060730B8
:2014800018F0062D89DA03C001E013E00FDA0091C306023049F4262D15E001E00ED2602ECE
:2014A00003C000E00093C10603E0701679F44092DD055092DE05EFEDF5E080839183A093E5
:2014C000B3066092E105B093B4060EC04092D8055092D905EAEDF5E080839183A093B10694
:2014E0006092DC05B093B2069BD2E8E00C949E33E2EDF6E0008103FF0AC0E3ECF6E0008160
:2015000003950083033018F000E00093C30601E062D100E112E0CAD900E30093230600917F
:20152000C106005021F00A9509F440C07DC005E911E0BCD901E00093230600917506073056
:2015400020F00091EC05AFDA03C00CE113E0AED90091C306013039F42091EC0512E301E016
:20156000ACD10093EC0501E6009323060091EE050A3030F40EE012E099D901E700932306EF
:2015800000917606073010F0D1D003C003EB12E08DD90091C306023009F049C02091EE052B
:2015A0001AE001E08AD10093EE053AC20EE511E07DD901E00093230600917506073020F049
:2015C0000091ED0570DA03C00CE113E06FD90091C306013039F42091ED051AE001E06DD1DF
:2015E0000093ED0501E6009323060091EF050A3030F40EE012E05AD901E700932306009198
:201600007606073010F092D003C003EB12E04ED90091C306023059F42091EF051AE001E092
:201620004CD10093EF05FCC100E00093C106F8C1053018F40CEF11E039C9AED901E9009323
:20164000230606E012E032C91091F605102319F004EF11E02BC908EF11E028C91091F60569
:20166000102319F000EF11E021C908EF11E01EC9E0EFF5E0168110FF09C0043608F003E667
:2016800011ED1093230688D903E4F5C809EE11E00DC91091F605102319F000ED11E006C938
:2016A0000EED11E003C9043608F003E675D903E4E2C810E084D90DE6DED809E6DCD80EE6EB
:2016C000DAC810E07CD901EC009323060BEC11E0EDC83CD901EC0093230606EC11E0E6C88E
:2016E0008A93802F04EC11E0E1D8805D082FC3D803E5C1D809E2BFD889910895023019F4DC
:2017000002E412E002C00DE312E0D0D800E40093230601E015E0CAD801E0009323060AEFF7
:2017200014E0C4D801E70093230608959A938A930091C106002319F48091EE0502C080912F
:20174000EF0590E08C0144E150E00E94B53286D908E291D88A30990740F001E38CD88C01A9
:201760004AE050E00E94CB32842F082F005D83D800E581D809E27FD8899199910895E2ED9E
:20178000F6E0108113FF0AC0E3ECF6E0108113951083011718F400E00093C3060091C306DB
:2017A000002351F00091D206067031F000E00093CA0605E50093C8060091C2061091C10676
:2017C000011729F043D80091C1060093C20600E00093230608951091C306112359F0009159
:2017E000D206067049F100E00093CA0605E50093C80622C0E2EDF6E0108111FF0BC010913F
:20180000C106112329F0E1ECF6E01A95108302C00093C106E2EDF6E0108112FF0DC01091FE
:20182000C106101730F4E1ECF6E0012F0395008303C000E00093C1060091C2061091C106EA
:20184000011731F00E9426040091C1060093C20600E00093230608951091D206167081F027
:201860001091F605102339F00095E0EFF5E01681102316830895E0EFF5E01681102B168328
:2018800008950E949633A02F912F822F62D0E2EDF6E0008102FF05C0891710F4839501C065
:2018A0008A2F008101FF05C0A81710F48A9501C0892F082FE3E00C94A3330E949633A02F24
:2018C000912F822F46D0E2EDF6E0008102FF03C0891708F4839501FF03C0A81708F48A9546
:2018E000082FE3E00C94A3330E949333402ED901CA012FD0E2EDF6E0008102FF10C08A1766
:201900009B0708F401960091CE060A3140F01A97A817B90708F00A9604E10093CE0600812D
:2019200001FF13C055244816590608F401970091D0060A3150F0E42DF0E03A96E817F90778
:2019400008F40A9704E10093D0068C01E6E00C94A033E1EDF6E0008102FF32C0EDECF6E00F
:20196000008103950083EEECF6E00081039500830091CD06003140F00CE00093CD06E2ED99
:20198000F6E0008104600083E1EDF6E0008101FF1DC0EFECF6E0008103950083E0EDF6E017
:2019A0000081039500830091CF06003140F00CE00093CF06E2EDF6E00081026000830895C8
:2019C00000E00093CD060093CE06DECF00E00093CF060093D00608958A93802F813061F48D
:2019E000EEE6F0E01091F70502E0109FE00DF11D059114910E945604833021F40DE312E039
:201A00000E945604823021F402E412E00E945604843021F408E312E00E94560489910895D6
:201A20000091BF06053079F400EF00932306009177060E3120F408EF14E00C9456040EE0CF
:201A400012E00E94560408958A9304E098DE0E94201801E00093C30603EF14E00E9456048B
:201A600000E50093230601EF14E00E94560400E8009323060FEE14E00E94560400E60093DB
:201A800023060091C306013081F42091FC0515E001E013DF0093FC0500917506073028F4B0
:201AA00001E013E00E94560404C00091FC050E94D70400EC009323060091FD05013099F48A
:201AC00000912707013029F404E712E00E9456040BC000912707023019F40FE612E0F6CFAB
:201AE00009E712E0F3CF78DF01E000932306E2E0F6E0008111810E942E0501E80093230629
:201B0000E0E0F6E000811181E4DD0091D306073450F10E94260400E00093230606EE14E025
:201B20000E9456040E9408328EE100E315E70E9470318A95D1F70E946F1800E00093D306E0
:201B40000091FD050093BF0601E00093BD0600E00093C30605E50093C80600E00093D20691
:201B600008EC00932206899108952091FE05EAE7F0E00091F70510E0E00FF11F0491209FDA
:201B8000E2E0F6E00082118208950091FF0510E044E150E00E94B532E2E0F6E000831183E9
:201BA00008958A9304E0EBDD00E00093C1060091FC051091FB05011731F00E9420180091AE
:201BC000FC050093FB050091C306002319F401E00093C3060FED14E00E94560400E8009343
:201BE00023060AED14E00E94560400E6009323060091C306013081F42091FC0515E001E0AB
:201C00005CDE0093FC0500917506073028F401E013E00E94560404C00091FC050E94D704F4
:201C200000EC009323060091C306023081F42091FD0514E001E025DE0093FD0500917606CE
:201C4000073028F403EB12E00E94560403C00091FD05C2DE01E0009323060091C306033035
:201C60000091FD0559F5013049F42091FE0516E001E023DE0093FE0578DF17C0043049F454
:201C80002091FF051AE001E018DE0093FF057DDF0CC0E2E0F6E0408151812AEF30E001E0CA
:201CA00023DEE2E0F6E00083118300917606073068F403EB12E00E9456040EC0013009F4FC
:201CC00054DF0091FD05043009F45FDFE2E0F6E0008111810E942E0501E800932306009119
:201CE000C3060430E0E0F6E0A9F44081518128E833E101E0F9DDE0E0F6E000831183009108
:201D00007606073010F0008107C00CE912E00E94560403C000811181DCDC0091D3060333B7
:201D200008F499C00E94C2310E94F41800E00093D3060093C3060E94260405C000E000935F
:201D4000D2060093180600912206053028F00E94E71A00E00093220600911806043098F348
:201D6000E2EDF6E0008100FF0BC00E946F1800E00093C3060093D20605E00093BF0669C03D
:201D80000091C0061091BF06011731F40091BE061091BD06011789F00091BF060093C00650
:201DA0000091BD060093BE0600E00093D2060093C3060093C1060E9426040E947E3100E07A
:201DC000009323060091FD05013009F4FDD80091FD05023011F402E038DA0091FD0503302D
:201DE00011F403E032DA0091FD05043009F480DB0091D306033308F4A1CF0E94260400E018
:201E00000093230604ED14E00E94560426D00EE20E943B0422D00EE20E943B041ED00E940B
:201E2000F4180E94ED170E94C2318EE100E315E70E9470318A95D1F700E00093D30605E0B2
:201E40000093BF0600E00093BD060093C3060093D2060E942604899108958A938EE100E33B
:201E600015E70E9470318A95D1F72CE231E006E811E00E94A531899108950091C506002390
:201E800079F4E2E6F6E0008111810B5F1F4F4AE050E00E94CB32E4E2F6E00083118304C0DC
:201EA00002E30093780608950FEF0093C606B3D000E500932306E2EDF6E0008103FF11C015
:201EC0000091C30600950093C30600912D06002341F000E00093C30600932D0604E6009320
:201EE0002006E1E7F6E0008103FD17C0E0E7F6E0008106FD12C000915606002371F40091CD
:201F0000C506002351F4EAE1F6E000811181012B21F400912D06002359F100E00093C3062C
:201F20000091C406002371F000E00093C406E4E2F6E0008111810B5F1F4F4AE050E00E9402
:201F4000CB32E1D100912D06002319F400911C0625D25CD100912006043680F100E0009332
:201F60002006C5D000912D06002369F172D03CC00091C3060023A1F20093C40600912706FC
:201F800001302091280611F412E301C01AE001E094DC009328060091760607300091280667
:201FA00018F00E945305CECF002329F00CE113E00E945604C7CF0CE912E0FACFE0E2F6E08C
:201FC000039500830895D3D05FD1E4EEF6E000811181ADD1E1E1F6E000811181C6D1EAE130
:201FE000F6E000811181EBD10091C306002391F400912D06002371F400E500932306E4E287
:20200000F6E0008111810B5F1F4F4AE050E00E94CB3279D108950091C3060023C9F4009154
:20202000BF060130A9F4E2EDF6E0008102FF10C0EDE2F6E0008103950083023018F000E0BB
:2020400000932D0604E60093200600E00093D206089500E000932306E9E4F6E000811181DD
:202060000E945F0500E20E943B0400E500932306E9E4F6E0028113810E945F0506E50E94A9
:202080003B0400E20E943B0400EB00932306E9E4F6E0048115810E945F0506E50E943B0407
:2020A00001E000932306E9E4F6E0068117810E945F0500E20E943B0401E500932306E9E489
:2020C000F6E0008511850E945F0506E50E943B0400E20E943B0401EB00932306E9E4F6E02F
:2020E000028513850E945F0506E50C943B040E949533E8E5F6E000811181E4EEF6E00083A6
:20210000118300915606013079F50091BF06013011F0043049F5ECEDF6E000811181E0E61D
:20212000F6E0208131810217130760F4C901801B910BD9018C0143E050E00E94CB32A01BDA
:20214000B10B0BC0C801821B930B8C0143E050E00E94CB32D801A20FB31F8A30904020F47B
:20216000E4EEF6E0A083B183E4E00C94A2338A9300E0009323060091BF06033021F40DE3E0
:2021800012E00E9456040091BF06023021F402E412E00E9456040091BF060130D1F401EDA6
:2021A00014E00E9456048091AF06E0E7F6E0008100FF06C001FF04C00E7F008300E204C00C
:2021C00001600083805D082F0E943B0403E50E943B040091BF060430A1F40091C1060023C3
:2021E00019F48091EE0502C08091EF050EEC14E00E9456040DE20E943B04805D082F0E9497
:202200003B0400E20E943B048991089500917A060130B1F501E0009323060091780602333C
:2022200059F400917906002319F004EC14E002C009EC14E00E945604009178060023B9F4AB
:202240000091790600230091270641F0002319F000EB14E00AC005EB14E007C0002319F0B0
:202260000AEB14E002C00FEB14E00E94560400917806053628F4E8E7F6E003950083089506
:2022800000E000937806089500917A060130D1F101E0009323060091BF06013029F50091D9
:2022A0007206002321F40EEC15E00E94560400917206013021F40AEC15E00E9456040091BC
:2022C0007206023021F406EC15E00E94560400917206033021F402EC15E00E94560400919B
:2022E0007206043061F407C00091C106002319F40EEC15E002C002ED15E00E94560400E21B
:202300000E943B04089510E00E946304009119070E943B040EE20E943B04009118070E9491
:202320003B0401E40E943B0400E20C943B0420EA209323060E94630400911B07003309F405
:2023400000E20E943B0400911A070E943B040EE20E943B04009119070E943B040091180714
:202360000E943B0406E50C943B0421EB209323060E94630400911C070E943B0400911B0779
:202380000E943B0400911A070E943B04009119070E943B04009118070C943B0411E810930C
:2023A000230610E00E946304009119070E943B04009118070E943B0400E20C943B0421E412
:2023C000209323060E94630400911A070E943B04009119070E943B04009118070E943B0462
:2023E0000AE30C943B048A930091C306002309F051C10091C506002309F47AC00091C70658
:202400000A3060F4E2EDF6E0008103FD07C00091BF060130E1F4008102FF19C00091BF0634
:20242000013039F40091D2060C7019F000E000932D0600E00093C7060093C50604E600938F
:20244000200600E00093D2060E94260423C1008101FF12C000E00093C7060091C50602303A
:2024600028F0E5ECF6E00A95008303C006E00093C50600E000932006E2EDF6E0008102FFB4
:2024800018C00091BF06013021F40AE00093C70610C000E00093C706E5ECF6E000810395AE
:2024A0000083073018F001E00093C50600E0009320060091C6061091C506011739F01093D5
:2024C000C60604E6009320060E94260400912006053648F000E000932006E7ECF6E00081D4
:2024E0000395008313C0E0E2F6E003950083D2C00091D206067009F4CDC004E6009320069D
:2025000000E00093C70601E00093C50600E0009323060091C506013009F05EC00091BF06A6
:20252000013049F58091AF0606EB15E00E94560400912706002301E70093230619F4EEE91B
:20254000F6E00CC0E0E7F6E0008101FF05C00CEA15E00E9456040FC0E0E6F6E00081118191
:202560004AE050E00E94CB320E942E0501EC00932306082FB5D80091BF06023029F402E099
:20258000BDD80091F10554D80091BF06033029F403E0B4D80091F0054BD80091BF060430AB
:2025A000D9F400E00093230606EB15E00E94560401EB0093230600912706002319F4EEE963
:2025C000F6E002C0E0E6F6E0008111814AE050E00E94CB320E942E050091C506023069F4FB
:2025E0000BE915E00E94560401EA00932306EAEDF6E0008111810E943F050091C50603301A
:2026000069F400E00093230602E915E00E94560400ED009323060091E10645D80091C5064B
:20262000043071F401E815E00E94560401E0009323062FD801EA009323060091F20518D864
:202640000091C506053081F408EB12E00E94560401E00093230602E00E94240B01E90093C6
:2026600023060091F4052DD80091C506063091F400E715E00E94560401E00093230604E032
:202680000E94240B01E800932306E9EFF5E0008111811FD88991089500912206053008F46C
:2026A0009BC00E942A200E94203291D70E941729023029F0013021F402E000937A0682C0CD
:2026C0000091C506002319F40FEF0093C606009127060130A9F50091BF06033049F400912D
:2026E000DD0500932806C9DB009128060093DD050091BF06023049F40091D805009328066B
:20270000BCDB009128060093D8050091BF06013051F40091AD0600932806AFDB00912806D9
:202720000093AD065BD00091BF06043049F40091EC0500932806A1DB009128060093EC055F
:20274000009127060023A9F50091BF06033049F40091DE050093280690DB00912806009342
:20276000DE050091BF06023049F40091D9050093280683DB009128060093D9050091BF069D
:20278000013051F40091AD060093280676DB009128060093AD0622D00091BF06043049F4AF
:2027A0000091ED050093280668DB009128060093ED0519DEE2EDF6E0008100FF08C002E088
:2027C00000937A0600E00093D20601E0089500E0009322060093D20600E008950091720691
:2027E000002321F40091AD060093E20500917206013021F40091AD060093E40500917206CB
:20280000023021F40091AD060093E60500917206033021F40091AD060093E8050091720691
:20282000043021F40091AD060093EA0508950E949633A02F80E091E000917A06013009F4A2
:2028400067C08093220608EC009318068093D20680932D06E0E7F6E00081006100830FC06F
:20286000DADB00E00093D2060093220600911806053608F440C000912D06002351F504DDA9
:20288000E4EEF6E00081118152DDE1E1F6E0008111816BDDEAE1F6E00081118190DD0091A9
:2028A0001C067CDD00E50093230600E02CDD00E000932306963058F4E4E6F0E002E0A09FAA
:2028C000E00DF11D059114910E94560403C04FDC01C0BFDB092F93950B3008F090E08A30C0
:2028E00018F483950E94CC310E94670000E00093D2060093180600912206053008F4B6CFA1
:2029000066D6E2EDF6E0008100FFAACF0E942604E3E00C94A3338A9380E00E9467000E94B0
:202920002604809323060FE515E00E945604EBE5F6E0808381838093220608EC00931806BF
:2029400009C000E00093D2060093220600911806053650F00E9467008A3018F483950E94F5
:20296000E03100E00093180600912206053070F3E1E7F6E0008101FDE4CF0E9426048991AE
:2029800008959A938A93802F90E090932D06E0E7F6E00081006100830E94260490932306C1
:2029A000893021F400E515E00E945604823021F40FE315E00E945604833021F401E315E028
:2029C0000E945604813021F406E215E00E945604863021F40CE115E00E945604853021F4E9
:2029E0000EE015E00E945604873059F403E114E00E94560401E00093230607E014E00E9406
:202A00005604883059F403E114E00E94560401E0009323060AEF13E00E9456048A30C8F08C
:202A20000AEE13E00E94560401E0009323068A3021F409ED13E00E9456048B3021F408EC9A
:202A400013E00E9456048C3021F407EB13E00E9456040E94670000E00093220608EC0093AA
:202A600018060AC0D8DA00E00093D2060093220600911806053670F18A3010F100912D06EC
:202A8000002311F0E6DA1CC000E00093230606EA13E00E94560401E0009323068A3021F48F
:202AA00009ED13E00E9456048B3021F408EC13E00E9456048C3021F407EB13E00E945604CC
:202AC0000E9467009A3018F493950E94E03100E00093180600912206053050F278D5E2ED5F
:202AE000F6E0008100FFBECF0E94260400E00093D2068991999108950E949533A0E0B0E081
:202B00000E942604E0E7F6E000810F7E0083A093230608E913E00E94560401E000932306E2
:202B200000E913E00E945604E1E7F6E0008102FD02C00E94F43104E60093CA0600E0009356
:202B4000C306D8D000912706002311F481E001C080E001E00093270602EA0FBD09E00EBD8F
:202B600000E0E4E6F6E00083018302C0009322060AE31BE0E0E6F6E000831183E2EEF6E010
:202B8000208131812B333B4020F4A13B04E0B00720F002E0F6DE01E0AAC00091220606307E
:202BA00038F30E942A201196EBE5F6E000811181065F1F4F008311839801293F324020F031
:202BC00008EF12E0008311830E9435010E949600E4E6F6E020813181253600E0304030F225
:202BE000EBE5F6E0008301830E943501813019F400E0009327060E9401020091BF060130C6
:202C0000F9F4009172060330D9F40091AE0610E0E9E8F0E03091F70522E0329FE00DF11D5D
:202C2000459154910E94B532E2EEF6E0208131810217130710F400E001C001E000932706DE
:202C400000E0EEEEF6E00083018302830383E2E6F6E00083018300912706002319F00E949F
:202C6000960002C00E9482008EE600E0009322060E942A2004C008EE13E00E94703100915C
:202C800022060730C0F38A9581F70E94DA3001E000932906E2EEF6E000811181ECEDF6E0D4
:202CA00000831183E8E5F6E00083118320E030E043E150E060E070E00E94E032E6EEF6E0F1
:202CC0000083118322833383ECEDF6E00081118120E030E043E650E060E070E00E94E03213
:202CE000E4E1F7E0008311832283338300E0E4E00C94A2330091CA06023048F00091C30688
:202D0000002311F405D04FD000E00093CA06089501E010E0EBECF6E0008311830091C906C2
:202D20000535A1F40091BF06053069F0063059F00FE01FE0DED20091BF0610E0DAD2009140
:202D4000BD0610E0D6D200E00093C906089501E010E0EBECF6E000831183E5D20F301F404F
:202D600009F5E1D20093BF06302F20E016E000E02CD10093BF06D7D20093BD06302F20E062
:202D800011E000E022D10093BD060091BF060093C006002319F400E00093BD060091BD06B0
:202DA0000093BE0608959A938A930AE010E0EBECF6E0008311830091C806053509F088C05D
:202DC0000091BF06053009F480C0063009F47DC00FE01FE08ED20091E20510E08AD2009118
:202DE000E30510E086D20091E40510E082D20091E50510E07ED20091E60510E07AD20091E1
:202E0000E70510E076D20091E80510E072D20091E90510E06ED20091EA0510E06AD20091F0
:202E2000EB0510E066D20091DD0510E062D20091DE0510E05ED2EFEDF5E00081118159D260
:202E40000091B30610E055D20091E10510E051D20091B40610E04DD20091D80510E049D2B4
:202E60000091D90510E045D2EAEDF5E00081118140D20091B10610E03CD20091DC0510E063
:202E800038D20091B20610E034D20091EC0510E030D20091EE0510E02CD20091ED0510E090
:202EA00028D20091EF0510E024D280E090E0FC01E051FA4F008110E01CD283958930B0F393
:202EC000E9EFF5E00081118114D200E00093C8068991999108959A938A930AE010E0EBEC2F
:202EE000F6E0008311831FD20F301F4009F061C01AD20093E20517D20093E30514D20093F9
:202F0000E40511D20093E5050ED20093E6050BD20093E70508D20093E80505D20093E905FC
:202F200002D20093EA05FFD10093EB05FCD10093DD05F9D10093DE05F6D1EFEDF5E000836B
:202F40001183F1D10093B306EED10093E105EBD10093B406E8D10093D805E5D10093D9053E
:202F6000E2D1EAEDF5E000831183DDD10093B106DAD10093DC05D7D10093B206D4D1009399
:202F8000EC05D1D10093EE05CED10093ED05CBD10093EF0580E0C7D190E0FC01E051FA4FF2
:202FA000008383958930B8F3BED1E9EFF5E0008311838991999108956017710718F02617AA
:202FC000370708F4BA018B010895301710F0131708F4322F032F10E008959A938A9300916B
:202FE000FC0510E048E250E00E94B53208531F4FEBECF6E0008311830FE01FE07AD10091A6
:20300000FD0510E076D1E2E0F6E00081118171D1E0E0F6E0008111816CD180E090E0FC01D7
:20302000E35EF84F008110E064D183958B30B0F3E8E2F7E0008111815CD18991999108952A
:203040009A938A930091FC0510E048E250E00E94B53208531F4FEBECF6E00083118363D100
:203060000F301F40C9F45FD10093FD055CD1E2E0F6E00083118357D1E0E0F6E0008311837F
:2030800080E051D190E0FC01E35EF84F008383958B30B8F348D11CC001E00093FD050AE063
:2030A00010E0E2E0F6E00083118304EF11E0E0E0F6E00083118380E001E090E0FC01E35EF1
:2030C000F84F008383958B30B8F39093270710E0E8E2F7E00083118389919991089500913D
:2030E000FD05013061F500911D070093E20500911E070093E30500911F070093E405009123
:2031000020070093E505009121070093E605009122070093E705009123070093E8050091CF
:2031200024070093E905009125070093EA05009126070093EB05009127070093F705009184
:20314000FD050330E1F400911D070093DD0500911E070093DE05E8E2F7E000811181EFED7F
:20316000F5E000831183009120070093B306009121070093E105009122070093B406009195
:20318000FD050230E1F400911D070093D80500911E070093D905E8E2F7E000811181EAED4F
:2031A000F5E000831183009120070093B106009121070093DC05009122070093B20600915E
:2031C000FD05043081F400911D070093EC0500911E070093EE0500911F070093ED05009102
:2031E00020070093EF0508950091FD05013061F50091E20500931D070091E30500931E070A
:203200000091E40500931F070091E505009320070091E605009321070091E70500932207D6
:203220000091E805009323070091E905009324070091EA05009325070091EB050093260796
:203240000091F705009327070091FD050330E1F40091DD0500931D070091DE0500931E072F
:20326000EFEDF5E000811181E8E2F7E0008311830091B306009320070091E105009321079C
:203280000091B406009322070091FD050230E1F40091D80500931D070091D90500931E0741
:2032A000EAEDF5E000811181E8E2F7E0008311830091B106009320070091DC050093210768
:2032C0000091B206009322070091FD05043081F40091EC0500931D070091EE0500931E0738
:2032E0000091ED0500931F070091EF05009320070895202F012FEBECF6E060817181AB010B
:203300000E94A3328B010F5F1F4F00831183022F2081312FA9010E94A332022F0F5F1F4F57
:20332000008311830895EBECF6E020813181A9010E949732202F0081132F0F5F1F4F008353
:203340001183B801A8010E94973210E0AB014F5F5F4F40835183322F20E0200F311F890113
:2033600008953091E20521E012E301E02EDE0093E2053091E30521E016E000E026DE009394
:20338000E3053091E40521E012E301E01EDE0093E4053091E50522E016E002E016DE009340
:2033A000E5053091E60521E012E301E00EDE0093E6053091E70521E016E000E006DE00933B
:2033C000E7053091E80521E01AE001E0FEDD0093E8053091E90521E016E001E0F6DD00932F
:2033E000E9053091EA0521E01AE001E0EEDD0093EA053091EB0521E016E001E0E6DD009327
:20340000EB053091DD0521E012E301E0DEDD0093DD053091DE0521E01AE001E0D6DD00934C
:20342000DE05EFEDF5E0608171814CE251E02AEF30E000E010E0C0DDEFEDF5E00083118368
:203440003091B30620E011E000E0BFDD0093B3063091E10521E015E001E0B7DD0093E105AE
:203460003091B40620E011E000E0AFDD0093B4063091D80521E012E301E0A7DD0093D805BE
:203480003091D90521E01AE001E09FDD0093D905EAEDF5E0608171814CE251E02AEF30E0BD
:2034A00000E010E089DDEAEDF5E0008311833091B10620E011E000E088DD0093B10630915A
:2034C000DC0521E015E001E080DD0093DC053091B20620E011E000E078DD0093B2063091B8
:2034E000EC0521E012E301E070DD0093EC053091EE0521E01AE001E068DD0093EE05309117
:20350000ED0521E01AE001E060DD0093ED053091EF0521E01AE001E058DD0093EF0530910D
:20352000F00524E014E104E050DD0093F0053091F10524E014E104E048DD0093F105309101
:20354000F20520E510E504E140DD0093F2053091F30521E01CE300E038DD0093F3053091F4
:20356000F4052CE018E401E030DD0093F4053091F50524E61EE604E628DD0093F5053091CA
:20358000F6052FE11FE100E020DD0093F6053091F70520E012E000E018DD0093F7053091E1
:2035A000F8052AE01CE305E010DD0093F805E9EFF5E06081718144EF51E028E833E101E0BA
:2035C00010E0FADCE9EFF5E00083118308958A930091D5060093D4060091D6060093D506F3
:2035E00086B380958F708093D6061091D4060091D50601238091D606802380FBE1EDF6E0D5
:2036000000816EF400FD0DC0008101600083E2EDF6E00081016000830E948B3102C00E7FE1
:20362000008381FBC6F407E0009375060093760600E00093C706E1EDF6E0008101FD10C09A
:20364000008102600083E2EDF6E00081026000830E948B3105C0E1EDF6E000810D7F0083A2
:2036600082FBC6F407E0009375060093760600E00093C706E1EDF6E0008102FD10C000815A
:2036800004600083E2EDF6E00081046000830E948B3105C0E1EDF6E000810B7F008383FB63
:2036A000C6F40091D3060A3F20F4E3EDF6E003950083E1EDF6E0008103FD13C000810860E7
:2036C0000083E2EDF6E00081086000830E948B3108C0E1EDF6E00081077F008300E000938F
:2036E000D3060091D606063039F400E00093D4060093D5060093D2060091D2060F7019F00A
:2037000000E00093CA0689910895E2EDF6E0008100FF12C00091BD06002321F000E00093BD
:20372000BD060AC0EFEBF6E0008103950083073018F000E00093BF06E2EDF6E0008103FF11
:2037400007C00091BD06002319F401E00093BD06089504B135B1EBE2F6E000833183089538
:20376000E7EDF6E00081039500830F3018F000E00093D7060FED06B90895AA939A938A938D
:20378000FA93EA933A922A921A920A927A936A935A934A933A932A931A930A93AFB70091B0
:2037A000D706EAEAF0E00C943A3308EB1BE0E5EBF6E000831183EAEEF6E00081118122816C
:2037C0003381E9EBF6E0008311832283338312D3E7EBF6E000811181EEEDF6E000831183B1
:2037E000E9EBF6E00081118122813381EAEEF6E00083118322833383ECEDF6E080819181D3
:20380000EEEDF6E00081118145E050E00E94CB32080F191F005B1F4FEEED20813181021791
:20382000130748F400916A06043640F4EAE6F6E00395008303C000E000936A0600916A065B
:203840000F31E1E7F6E0008110F0026001C00D7F008304E007B9B8C200E817E0E5EBF6E034
:2038600000831183E2EFF6E00081118122813381E9EBF6E00083118322833383BBD2E7EBA5
:20388000F6E000811181E8EDF6E000831183E9EBF6E00081118122813381E2EFF6E000833F
:2038A00011832283338300E0D5CFE6EDF5E02081318100911006102F110F110B020F131F35
:2038C000E5EBF6E000831183E6EEF6E00081118122813381E9EBF6E00083118322833383FB
:2038E00089D2E7EBF6E000811181ECEDF6E000831183E9EBF6E00081118122813381E6EE04
:20390000F6E00083118322833383E5EBF6E000811181E2EEF6E0008311833AD3009127061E
:20392000013011F403E096CF02E094CF00912706013019F40FE517E102C001E516E0E5EB6E
:20394000F6E000831183EEEEF6E00081118122813381E9EBF6E000831183228333834AD226
:20396000E7EBF6E000811181E2E6F6E000831183E9EBF6E00081118122813381EEEEF6E011
:203980000083118322833383E5EBF6E000811181E4E6F6E000831183E2E6F6E02081318154
:2039A0002C3F364138F00E946700E0E7F6E000810062008306E007B9C598C698C79804C26B
:2039C000E4E0F6E000811181E5EBF6E000831183E8EFF6E00081118122813381E9EBF6E0BC
:2039E000008311832283338305D2E7EBF6E000811181E7E4F6E000831183E9EBF6E00081E0
:203A0000118122813381E8EFF6E0008311832283338306E007B9C59AD0CFE4E0F6E00081DF
:203A20001181E5EBF6E000831183ECEFF6E00081118122813381E9EBF6E0008311832283B6
:203A40003383D8D1E7EBF6E000811181E9E4F6E000831183E9EBF6E000811181228133817E
:203A6000ECEFF6E0008311832283338306E007B9C598C69AA3CFE4E0F6E002811381E5EBCD
:203A8000F6E000831183E0E0F7E00081118122813381E9EBF6E00083118322833383AAD1A1
:203AA000E7EBF6E000811181E9E4F6E002831383E9EBF6E00081118122813381E0E0F7E0E2
:203AC000008311832283338306E007B9C59AD1CFE4E0F6E004811581E5EBF6E0008311835D
:203AE000E4E0F7E00081118122813381E9EBF6E000831183228333837DD1E7EBF6E000812E
:203B00001181E9E4F6E004831583E9EBF6E00081118122813381E4E0F7E0008311832283E6
:203B2000338306E007B9C598C698C79A4DC1E4E0F6E006811781E5EBF6E000831183E8E0C1
:203B4000F7E00081118122813381E9EBF6E000831183228333834ED1E7EBF6E0008111812E
:203B6000E9E4F6E006831783E9EBF6E00081118122813381E8E0F7E000831183228333835A
:203B800006E007B9C59AD0CFE4E0F6E000851185E5EBF6E000831183ECE0F7E00081118159
:203BA00022813381E9EBF6E0008311832283338321D1E7EBF6E000811181E9E4F6E00087BB
:203BC0001187E9EBF6E00081118122813381ECE0F7E0008311832283338306E007B9C59821
:203BE000C69AA3CFE4E0F6E002851385E5EBF6E000831183E0E1F7E000811181228133817B
:203C0000E9EBF6E00083118322833383F3D0E7EBF6E000811181E9E4F6E002871387E9EB70
:203C2000F6E00081118122813381E0E1F7E037CEE6EDF5E02081318100911006102F110FA6
:203C4000110B020F131FE5EBF6E000831183E6EEF6E00081118122813381E9EBF6E0008307
:203C6000118322833383C6D0E7EBF6E000811181ECEDF6E000831183E9EBF6E00081118181
:203C800022813381E6EEF6E00083118322833383E5EBF6E000811181E2EEF6E0008311833B
:203CA00077D100912706013009F43CCE3DCE00912706013019F40FE517E102C001E516E035
:203CC000E5EBF6E000831183EEEEF6E00081118122813381E9EBF6E00083118322833383EF
:203CE00089D0E7EBF6E000811181E2E6F6E000831183E9EBF6E00081118122813381EEEE0B
:203D0000F6E00083118322833383E5EBF6E000811181E4E6F6E000831183E2E6F6E02081AC
:203D200031812C3F364138F00E946700E0E7F6E000810062008306E007B9E0EFF5E00681EA
:203D400000FF3ACEC59A4CCFE0EFF5E0068100FF23C000E00AB991980AEF10E0E5EBF6E07A
:203D600000831183E6EFF6E00081118120E0E9EBF6E000831183228323833CD0E7EBF6E0AE
:203D800000810093E006E9EBF6E000811181E6EFF6E00083118308C000E0E6EFF6E00083D4
:203DA00001830093E006D5DC0EE105CED2DCEBE2F6E000811181E3E7F6E00083118301E097
:203DC00049CD00E00093D70600E000932E06AFBF09911991299139914991599169917991D8
:203DE0000990199029903990E991F99189919991A99118950E949533ACDCEBE2F6E040817A
:203E00005181E5EBF6E0608171812224579F9001469F8001569F100D211D321D749F100D55
:203E2000211D321D4FEF53E060E070E00E940433C8010091D7060E3009F48CC0E0E7F6E0C0
:203E4000008103FD5CC00091D706023011F00B3011F58B330BE0900738F0E1E7F6E000815C
:203E6000006400830E946700EEEDF6E0A081B1815F9718F00EE110E002C0008111812091EB
:203E80002706213031F40817190728F4801B910B02C0800F911F0091D706043080F10B309E
:203EA00070F5E0E7F6E0008104FF11C0E9EBF6E0008111812281338143E150E060E070E0B3
:203EC0000E940433E7EBF6E00083118343C00091D706053009F044C0E7E4F6E000811181F3
:203EE00080179107D0F1801B910B8C3B02E0900730F40091D706053010F080E090E0A0E044
:203F0000E9EBF6E00081118122813381080F191F2A1F3A1F008311832283338344E150E0D5
:203F200060E070E00E940433E7EBF6E000831183E9EBF6E04081518162817381401B510B8E
:203F4000604070404083518362837383E5EBF6E080839183E4E00C94A23380E090E0C5CF45
:203F6000063019F6E9E4F6E0008111818017910760F000811181801B910BE7E4F6E000815B
:203F800011810817190748F7AECF80E090E0B1CFECEDF6E000811181E8E5F6E0208131818C
:203FA00002171307C8F48901ECEDF6E020813181021B130B20E030E0E4E1F7E0408151810C
:203FC000628173810417150726072707B8F4401B510B604070400EC0021B130B20E030E0AC
:203FE000E4E1F7E04081518162817381400F511F621F721F40835183628373830536120724
:2040000080F0ECEDF6E00081118144E650E060E070E00E94E032E4E1F7E000831183228378
:204020003383008111812281338144E650E060E070E00E940433E8E5F6E000831183089546
:204040005D9BFECF0CB908950B5F1F4F4AE050E00C94CB320E948D332C97E0EFF5E006811A
:2040600000FD5CC1EAE2F7E000810395008308E00AB900912A07003208F450C100E00093C8
:204080002A07EBE2F7E000810395008306301CF000E000932B07EAE1F6E020813181283E6E
:2040A000334020F007EE13E00083118300912B07002349F50091F60508830091F005098331
:2040C0000091F1050A830091F2050B830091F3050C8300E00D830091F5050E8300917A0601
:2040E00001300091270609F4005F0F830091DD0508870091DE0509870091B3060A87009171
:20410000E1050B87D6C0013021F50091D80508830091D90509830091B1060A830091DC050F
:204120000B830091AD060C830091AE060D830091EA050E830091EB050F830091EC05088714
:204140000091EE0509870091BF060A8700912906D8CF0230E1F4EAEDF5E0A080B180EFED1D
:20416000F5E080819181A091F405B0E0E9EFF5E0008111814AE050E00E94B5322801E4E20B
:20418000F6E060807180E4EEF6E08080918000912B070330C9F4A090E106BB2480E090E046
:2041A000E8EDF6E0A081B181E1E1F6E040805180E9E4F6E00081118147DF3801E9E4F6E020
:2041C0000281138141DF480100912B070430E1F4E9E4F6E00481158137DF5801E9E4F6E0C3
:2041E0000681178131DFC801E9E4F6E0008511852BDFD801E9E4F6E00285138525DF280137
:20420000662477248824992400912B07053079F4AA24BB2480E090E0A0E0B0E0442455243D
:20422000EAE1F6E060807180882406E0902E850144E650E00E94CB320883102F04E6109FDA
:20424000A018A9828C0144E650E00E94CB320A83102F04E6109F80198B838D0144E650E001
:204260000E94CB320C83102F04E6109FA019AD83820144E650E00E94CB320E83102F04E619
:20428000109F40184F82830144E650E00E94CB320887102F04E6109F60186986840144E64C
:2042A00050E00E94CB320A87102F04E6109F80188B8680E0FE0190E0E80FF91F0081006856
:2042C000008383958C30B0F300912B07002321F40BE7B6DE90932A0680E0FE01E80FF91FA2
:2042E0000081AEDEFE01E80FF91F0081EAE2F6E01081100F108383958C3078F300912B073B
:20430000053061F4812F8F70805D012F02950F70005D96DE082F94DE0DE792DE2C96ECE0D5
:204320000C949A3301E0009327060E947C15002321F002E000937A060895E3D0D0D60AE033
:204340000093A00601E00093A10603C000E0009318060E944C13002331F00E94260400E0C4
:204360000093D2060895009128060093A406009118060B3070F30091BF06033029F40091B5
:20438000B406002351F004C00091B206002329F0E0E7F6E000810064008303D00023B1F218
:2043A0000895009119060A35E0E7F6E0008118F102FF0EC00091A906043620F4E9EAF6E044
:2043C00003950083E0E7F6E000810B7F00835FD00E948600009119060F3508F456C07FD6E5
:2043E0000091A906063008F48CD000E00093A006009319064AC00460008306FF03C00091DA
:20440000A10602C00091A40610916C06101708F4012F00935D060091A906002351F5EDE620
:20442000F6E0008100FF33D000911906053110F00E3120F00333C0F00C33C8F400E000939A
:204440005D0600935506EBE5F6E0008301830E94350100E00093A00600911906093111F082
:20446000073389F44ED00FC0043008F44AD027D008C0063008F423D04ED4002311F001E043
:2044800008950E949A000E94960000E008950E94010200916C0610915D06011778F400E07E
:2044A00000935A06EAE9F6E0008301830093A606E8E9F6E0008301830093A7060895ECEDB6
:2044C000F6E000811181E6E9F6E02081318102171307B0F4009119061091A206011781F0A2
:2044E0000093A2060091A006073050F00091A1061091A406011720F4E1EAF6E00395008368
:204500000895ECEDF6E0008111814DE050E00E94CB32043120E0120710F404E110E0ECED40
:2045200020813181200F311FE6E9F6E02083318308950E949133552477246624A0E0B0E0FC
:2045400080E090E0509227060E947C15002331F002E000937A06E8E00C949E330091BF0681
:20456000033079F4EFEDF5E0008111814AE050E00E94B532EEE9F6E0008311830091DE05BC
:204580000EC0EAEDF5E0008111814AE050E00E94B532EEE9F6E0008311830091D9050093E5
:2045A000A806402E00811181012B09F041C0E2EEF6E00081118144E650E00E94CB324AE5C5
:2045C00050E00E94B532D80100E012E0019FF001E15DF94FA083B18303950C30B0F3E2EEC2
:2045E000F6E0808191818F31904058F0082F11810E51104046E950E00E94CB32C801012B8F
:2046000011F481E090E08C014AE550E00E94B532EEE9F6E0008311838C0145E050E00E9407
:20462000B532C801E1E7F6E000810860008353940E9401023CC008EC701680F1601608F4DB
:204640006394ECEDF6E020813181EEE9F6E000811181005B1F4F2017310718F002E0501619
:20466000E1F403E0502E0091A8060330B0F00BE0601630F0E3EAF6E00081039500836624A8
:204680000091A80610E040E550E00E94B53244E650E00E94CB320093A80677240091A806F9
:2046A000401610F44092A80600E00093A5060E944C13002331F00E94260400E00093D206A6
:2046C0004ACF5BD4002309F046CF0091A506063070F37394552011F301E0501609F0ABCF52
:2046E00000911906093240F1E8E5F6E0008111810A171B0708F50FE10093190601E012E033
:20470000019FF001E15DF94F40815181202F30E021503040220F331FF901E15DF94F4083E9
:20472000518303950C3058F3E8E5F6E000811181EFE2F6E0068B178BECEDF6E00081118134
:204740009C01200F311FEFE2F6E0408151812417350708F0A3CF003223E0120710F4085D6B
:204760001F4F44E650E00E94CB3245E550E00E94B532EEE9F6E00083118302E0502EE2E603
:20478000F6E00081118144E650E00E94CB3203950093A80683CF00917206033069F401E092
:2047A000009327060E947C15002331F400912706013009F402C00AD108950E949133A2E0B0
:2047C00080E004E10093920600917206033059F001E0009327060E947C15002321F002E0FA
:2047E00000937A06F0C00091AE06002349F062D2002319F00E94C114F2CF38D1002379F721
:204800000091F705E3E8F0E012E0019FE00DF11D45905490E9E8F0E0019FE00DF11D6590F9
:2048200074900091AE06002359F4E0E7F6E000810260008301E00093AF060AE31BE011C0DA
:20484000A091F805E0E7F6E000810D7F00830091AE060093AF0682014091AE0650E00E9496
:20486000B532E0E6F6E00083118300917206033041F483014091AE0650E00E94B5320083E8
:20488000118382014AE050E00E94B532E6E6F6E00083118303C000E0009318060E944C1310
:2048A000002331F00E94260400E00093D2068BC0009118060B3090F3EAE1F6E00081118131
:2048C0000A17104000911906D0F4053618F004E60093190691E00091AE06002379F400913D
:2048E000AD064AE00E94A732802F002311F481E003C0843008F083E031D147C044C00B3608
:2049000078F5093659F4EEEDF6E0008111810333104020F001E00E94C11455C090E00E94C5
:2049200086001CD10091AE06002341F4EBEAF6E000811181E0E6F6E00083118300917206ED
:20494000033041F4E0E6F6E000811181EBEAF6E00083118300E0009356060093210619C01C
:20496000E0E6F6E000811181EBEAF6E0208131810217130711F009E0CECFE0E7F6E00081B2
:204980000D7F008391E08091AD060E9452020E94960080935D06EDE6F6E0008100FD02C046
:2049A0000E94010200916C0610915D06011710F400935D060E949A00992309F46CCF60D2D7
:2049C000002309F468CFE8E00C949E330E94953300E0009327060091F705EDE7F0E012E01A
:2049E000019FE00DF11D85919491E9E8F0E0019FE00DF11DA591B49100917206033041F0BD
:204A00000E947C15002321F002E000937A062BC00091AE064FD1002319F00E94C114F4CF84
:204A200000917206033011F48D0101C08C014091AE0650E00E94B532EEE9F6E00083118357
:204A40000091AE060093AF060E9401020E944C13002331F00E94260400E00093D20603C005
:204A60008CD2002399F3E4E00C94A2338A9380E006E400932206809321060E948B316ED0F8
:204A8000009122060B30D8F30E94E71A83952091AE0630E0EBEAF6E00081118123D001E095
:204AA00000932306843618F402E713E002C001E813E00E945604883C08F080E0E2EDF6E03D
:204AC000008103FF04C00E94DA3000E009C000FD04C000912106053190F20E94DA3001E07C
:204AE000899108950E9493332801A22FE3E8F0E01091F70502E0109FE00DF11D859194919E
:204B000000E0009323060FE613E00E94560400E2009323068201AC010E94CB320E94CC0436
:204B200000E40093230609E613E00E94560400E90093230606E613E00E94560400EB0093F9
:204B400023060A2F0E94CC0400ED0093230602E613E00E945604E6E00C94A0330E9495335E
:204B600041E050E0E3E8F0E01091F70502E0109FE00DF11D85919491ECEDF6E0A081B181E3
:204B8000D39780F00081118102531040AC010E94CB32A8014F5F5F4F473000E0500710F084
:204BA00046E050E00091AE06002311F44093AF068C010E94B532EBEAF6E000831183E4E00E
:204BC0000C94A23301E0009327060E947C15002309F043C00091EE050B3018F001E0009332
:204BE000EE0568D0002311F00C94C1140091EE0510E045EF50E00E94B532E0E6F6E0008371
:204C0000118305C00E94960000E0009318060E944C13002331F00E94260400E00093D20616
:204C20000895009118060B3090F30091EC0500935D06EDE6F6E0008100FD02C00E94010264
:204C400000916C0610915D06011710F400935D060E949A0015D10023A9F2089500E000934B
:204C600027060E947C15002321F50091EF050B3018F00AE00093EF051DD0002311F00C94B1
:204C8000C1140091EF0510E046E950E00E94B532EEE9F6E0008311830E944C13002331F0D9
:204CA0000E94260400E00093D206089566D1002399F308950E949333A02F0091BF060130FF
:204CC00059F40AEF10E08EEA91E02091F705223039F406E982E704C00CE810E08FEF90E09B
:204CE000E2EEF6E0408051804A2F50E00E94B5324016510610F407E00BC08C014A2F50E0B2
:204D00000E94B5320415150510F408E001C000E0E6E00C94A0330091A506023310F400E0BC
:204D20000895009119060F3108F46FC0E8E5F6E000811181EAE9F6E02081318102171307D6
:204D400038F400911906083518F008E50093190689010B5F1F4FE8E5F6E020813181021722
:204D6000130790F4EAEAF6E0008103950083093C70F000E00093AA06890103501040EAE987
:204D8000F6E00083118303C000E00093AA06EAE9F6E000811181E8E5F6E020813181021775
:204DA000130770F4E6EAF6E0008103950083053650F0EAE9F6E000810F5F1F4F008311839B
:204DC00000E00093A6068901ECE9F6E020813181200F311FEAE9F6E0008111812017310782
:204DE00040F4EAE5F6E0008103950083093C40F403C000E000935A060091A7060330E0F1ED
:204E000000E00E94171401E008950C31A8F1E8E9F6E000811181EAE9F6E0208131810217C2
:204E2000130720F4E8E9F6E020833183009119060C31A9F40DE100931906E8E5F6E00081F8
:204E400011810E5F1F4FE8E9F6E0208131810217130728F4E7EAF6E0008103950083E8E58C
:204E6000F6E000811181EAE9F6E0208131810217130710F40083118300E00093A506089544
:204E8000BA93AA9300912106053108F44BC000915606002339F4AAE1B6E0ED91FC913B9758
:204EA00008F440C00091BF06013049F400917206023029F410915D0602E0109F03C00090F2
:204EC0005D061124E4E2F6E0008111810016110660F4A4E2B6E0ED91F12F389730F0ABE5D1
:204EE000B6E0ED91FC913397D0F40091BF06013041F400917206013021F4009192060F310F
:204F000028F0EAE5F6E000810395008300915A06093C40F000E00E94171401E02BC000E079
:204F200000935A060091BF06013051F400912106093220F00EE1002E112406C004E6FBCFE3
:204F40000CE2002E01E0102EE0E6F6E000811181000D111DE8E5F6E0208131810217130703
:204F600040F400916D060430A8F202E00E94C114D4CF00E0A991B99108950E94953380E064
:204F800090E000911806053108F4A5C0E1E7F6E0008103FF03C00091A80602C000912806B7
:204FA00000935D06EDE6F6E0008100FD02C00E94010200915D0610916C06011710F01093AB
:204FC0005D060091BF060130E9F4009172060330C9F4EEE9F6E000811181E0E6F6E0008332
:204FE00011830E944D01ECEDF6E0008111810C591F4FE0E6F6E0208131810217130720F462
:2050000081E002C00E94B401E2EEF6E0008111810C591F4FEEE9F6E0208131810217130757
:2050200028F401E00E94171401E056C0E2EEF6E0A081B1811897A8F30091BF06013029F4C8
:2050400000917206033009F495E0092F10E0020F131FE8E5F6E0208131810217130708F115
:205060009530A1F410915D0602E0109FE4E2F6E0008111810016110648F4D801189730F081
:20508000EBE5F6E0A081B181139728F4EAE5F6E000810395008300915A06093C50F081E039
:2050A00008C000915A06002321F0EAE5F6E00A9500830091A306033010F4882309F0B1CFA7
:2050C0000091BF06013011F40E9452020E94820000E00093180600E0E4E00C94A2330E94DE
:2050E00095330091BF06033021F49091F0058CE003C09091F10587E0E8E5F6E000811181D1
:205100004AEA50E00E94CB32953010F0492F01C0482F50E00E94B5324AE050E00E94CB3265
:20512000ECE9F6E000831183ACE9B6E0ED91F12F339710F402E007C0ACE9B6E0ED91F12FA4
:20514000B39730F002E210E0ECE9F6E000831183E4E00C94A233392F282FE0EFF5E006812C
:2051600002FF11C0E1E1F6E080819181E9EFF5E0008111814AE050E00E94B53280179107E0
:2051800010F003E02AC0E0EFF5E0068101FF10C0EAE1F6E0808191810091F40510E04AE0EF
:2051A00050E00E94B5328017910710F002E015C00091E0061091F205011728F0E0EFF5E06D
:2051C000068100FD03C000E000936B0600916B06063010F004E001C000E0822F932F0895D7
:2051E000792F682FE8EDF6E0808191810091F50510E04AE050E00E94B5328017910720F015
:205200009C012930374030F0E8E6F6E000810395008303C000E000936806009168060630E8
:2052200010F001E001C000E0862F972F08958A9380E0D6DF002329F003E00E94C11401E02B
:2052400080C0E3E7F6E0208131812C3C01E0300718F02733324008F081E0EEEDF6E020811C
:2052600031812536304008F081E000915D0610E044E650E00E94B532045D1E4FE2E6F6E025
:20528000208131810217130760F0882351F400E000936906E0E7F6E0008105FF08C006E096
:2052A000CCCF009169060930A8F301E0C6CFECEDF6E0208131812B333B4028F4E1E7F6E074
:2052C000008106FF02C002E0B8CF00911706002339F000919506063030F000911706ADCF77
:2052E00000E000939506E2EEF6E0208131812B333B4048F7009127060130D9F40091BF067D
:20530000033011F00230A9F4009119060A3588F40B3078F000915D06043058F00091A906CC
:20532000002339F0E2E6F6E0208131812639304050F211DF002321F00E94171402E001C08B
:2053400000E0899108950E94963390E0A0E090937B06E1E7F6E000810B7F008301E0009317
:205360007A0600E020E012E0019FF001E258F94F2083218303950A30A8F320937D0605C019
:20538000EBE7F6E0008103950083009179060023E1F001E0CBD0002319F00E9426042FC062
:2053A000E8D00023D1F700E0C1D00023B1F700917C0610E00150104020917B0602171040CF
:2053C000E9F0D7D00023E1F2E8CF00E0AFD0002321F7CFD0002309F701E0A8D00023E9F6E9
:2053E00000917C0610E00150104020917B060217104021F0BED0002319F2CFCFA1E080E022
:205400008093D2060AE00093220608EC009318060E9467000E942604E0E7F6E00081006103
:20542000008315C004E00093220600E00093D20600911806053658F00E9467009A3020F411
:205440009395AA2309F0A8D700E00093180600912206053068F30E94E71AE2EDF6E000813C
:2054600002FF05C0843010F4839501C080E0008101FF05C0882311F08A9501C084E00091AE
:205480007906002300E00093230651F00BEA14E00E94560401E0009323060DE513E009C05D
:2054A0000DE513E00E94560401E0009323060BEA14E00E94560400E400932306082F03951A
:2054C0000E94CC0401E400932306082F03950E94CC0400E90093230604E0809FF001E258A5
:2054E000F94F008111810E94010501E90093230602E0809F01E0000E00E0101E000C111CCC
:20550000F001E258F94F008111810E9401058AD7002309F487CF02E000937A0600E000931E
:20552000D2060E942604E3E00C94A333002319F00E94922102C00E949922E1E1F6E00081D5
:20554000118130917D0622E0329FF001E258F94F00831183EDE7F6E0008103950083009141
:205560007A06023011F401E008950E94670000E008950E94953380E0E1E7F6E00081046023
:2055800000830091F305002300E009F4BFC08093230602E3009378060E94061180931C0660
:2055A000EAE1F6E080838183809321060AE00093190680932D0605C000E00093D206009384
:2055C0001806EAE1F6E0208131810091F3052017304008F09AC000912206053080F00E9437
:2055E000E71A20D7002341F002E000937A0600E00093D20601E08AC000E0009322060091C8
:2056000018060531F0F200911906063020F080E004E600931906E2EDF6E0008101FF08C074
:2056200000E000931906882311F080E001C081E0008102FF08C000E000931906882311F022
:2056400080E001C081E00E94B7100E944411E4EEF6E0008111810E949711E1E1F6E000814A
:2056600011810E94B51100E50093230600E00E94831101E000932306813059F401EA14E0FF
:205680000E9456040091F30510E00E94DF1100E00CC006EA14E00E945604EAE1F6E0008155
:2056A00011810E94DF1100911C060E94CE110E946700E1E7F6E0008101FF03C00E948B1466
:2056C00099CFECEDF6E020813181E4EEF6E00081118116950795020F131F08531F4F2081B1
:2056E00031810217130720F402E00E94C11482CF009121060B3008F45FCFECEDF6E0A0811A
:20570000B181D29708F058CFEFCF00E0E4E00C94A2330E949333E8D1E7D180E003C081304B
:2057200009F473C002E0809FF001EC5FF94F208131812436304050F0809FF001EC5FF94FB4
:20574000208131812137374108F45FC0E0EFF5E006810160068300E0009310060E942604A1
:205760000E948600E0E7F6E000810860008300E014E0E6EDF5E0008311830093210680E04B
:2057800022E0829FF001EC5FF94F0083118383958630B0F300E00AB9009122060333D0F385
:2057A00000E010E627E230E0ECEDF6E04081518160E070E00E940433D80100E000932306DA
:2057C00006E914E00E94560400EC009323068D010E94A60401E00093230602E914E00E944A
:2057E000560401E3009323060091E0060E94CC0400E00093220600912106043058F280E095
:20580000813051F400ED10E209C08395863008F486CFE6E00C94A03308E610E120E030E0A3
:205820004AE00E94FC3242E0849FF001E75BF94F4081518160E070E00E94043322E0829F8F
:20584000F001EC5FF94F0083118383958630C0F280E0082F20D102E0809FF001EC5FF94F20
:20586000008111810E94F5048395863090F3E6EDF5E0A083B1835ED1902F002381F504E8B7
:2058800013E0EBECF6E00083118300911006102F110F110B0E9479190EE813E0EBECF6E065
:2058A000008311838D010E94791980E002E0809FF001EC5FF94F008111810E9479198395CB
:2058C0008630A0F3E0E7F6E00081077F00830CD131D1902F00911006002309F091E044241E
:2058E0003CC000E00093230602E814E00E94560401E00093230606E714E00E94560401EBD0
:2059000000932306ECEDF6E0008111810E94A604863009F49DE49D34E9F400EF0093230630
:205920000EE514E00E94560401EF009323060EE514E00E9456040E94E71AE2EDF6E000812C
:2059400003FF04C000E00093D206439402E0401609F44ED000E00093220600912206033382
:20596000E0F3992351F19D3441F19130B9F40E94260400E00093230608E614E00E9456049F
:2059800001E00093230600E614E00E94560401EC009323068D010E94A604DCCF00EF0093E4
:2059A000230604E714E00E94560401EF0093230604E714E00E945604AECF80E0442009F022
:2059C00090CF5524052D67D010E0052D55D002E0509EF001E75BF94F2081318124363041D6
:2059E00008F08395539406E0501608F091CFEACF9A938A9390E090937B06009122060B3001
:205A0000E0F300E0009394060E942B0201E010E0492F0E94C532009394060E942B0280E099
:205A20008C0114D083958630D8F300917B06053620F000E000937B06939580E0082F2BD051
:205A40008C011AD083958630C0F6F8CF101799F412E0019FF001E75BF94F20813181223618
:205A6000304130F4EBE7F6E0008103950083089500E000937B060895011748F012E0019F3D
:205A8000F001E75BF94F008111810C94F5040AE514E00C945604002319F410E01093230616
:205AA000013019F410E410932306023019F410E810932306033019F410EC109323060430A9
:205AC00019F411E010932306053019F411E410932306063019F411E810932306073019F4AD
:205AE00001EC0093230608958A9304E813E0EBECF6E0008311830E949319009310060EE8B3
:205B000013E0EBECF6E0008311830E949319E6EDF5E00083118380E00E94931922E0829FF0
:205B2000F001EC5FF94F0083118383958630A0F38991089510E000911006053114F40C3E93
:205B40001CF400E00093100600E0013019F424EF31E002C02AEF30E042E0049FF001EC5F7E
:205B6000F94F60817181E8E5F0E0049FE00DF11D45915491421B530B64177507A0F0E8E505
:205B8000F0E042E0049FE00DF11D45915491420F531F22E0029FF001EC5FF94F208131817D
:205BA0004217530708F412E00395063070F2123099F400E0E8E5F0E022E0029FE00DF11D2A
:205BC0002591349142E0049FF001EC5FF94F208331830395063070F3E6EDF5E0208131817E
:205BE0002E390BE0300718F0233D3B4030F008EB1BE00083118301E00895012F08959A939C
:205C00008A9380E090E00E9426040E9486006CDF91DF4CC006E414E00E9456040E94E71A5F
:205C2000E2EDF6E0008101FF09C080E0009110060D3E24F0E0E1F6E00A950083E2EDF6E0B1
:205C4000008102FF09C080E000911006043124F4E0E1F6E003950083E2EDF6E0008100FDD0
:205C6000F89403FF23C004E813E0EBECF6E00083118300911006102F110F110B0E947919BA
:205C80000E94260400E00093230604ED14E00E9456040E942D0F0EE20E943B040E942D0F2E
:205CA0000EE20E943B040E942D0FF89400E00093D206009122060430E0F30E942A2083959A
:205CC000939500E0009323060091100600233AF00EE514E00E9456040091100609C008E5CC
:205CE00014E00E945604109110060FEF109F002D10E110932306843118F40E94D70404C064
:205D000001E013E00E945604893208F080E000E60093230603E514E00E945604E8E5F6E083
:205D2000008111810E94971101E0009323069E3708F470CF09E314E06FCF43D10E9467001E
:205D40000E9485030E948503E6D20E94A7160E946B1700E50093230602E314E00E9456043E
:205D600001E10093230604E214E00E94560400E000932106EEE7F6E0048305830683078348
:205D800000912206053098F10E94E71A0091D606053069F4EEE7F6E0048115810F5F1F4F48
:205DA0000483158398012536304008F0B2DC0091D6060A3091F4EEE7F6E0068117810F5F76
:205DC0001F4F0683178300E0009321062681312F293E334038F013DF05C000E0EEE7F6E04D
:205DE0000683078300E00093D206009322060E94670000912106023018F20E94A7160E948C
:205E00006B1700E00093D306EEEDF6E00083018300936A06E1E7F6E000810D7F008364DE89
:205E200089DE0E9426047FC00E94D5050091AE06073018F001E00093AE060091D306073423
:205E400008F44DC00091BF06053009F448C0013091F400917206033010F40E94DD23009180
:205E60007206033011F40E94CB2300917206043011F40E94E6240091BF06033011F0023038
:205E8000C9F40091C106002311F40E9492210091C106013011F40E9499220091C1060230FB
:205EA00049F451DA00E000937A06E1E7F6E000810B7F00830091BF06043061F40091C10624
:205EC000002311F40E94E2250091C106013011F40E942E2600E00093D3060093C306E1E7FD
:205EE000F6E0008101FF02C00E948B140E94670000E00093D2060093220600911806093C45
:205F000090F0E0E7F6E00081077F00830E947A160E94B11965D9002319F003E00E94C11478
:205F200000E00093180600912206053030F300E0009323060E942A200E94E71A0E94851B52
:205F400019D00091BD06002309F06ECF0E947105E2EDF6E0008101FFC2CF0091BF06002363
:205F600029F0EFEBF6E00A950083B9CF06E00093BF06B5CF0091C0061091BF06011731F4F2
:205F80000091BE061091BD060117D1F00091BE061091BD06011711F00E9426040091BF067B
:205FA0000093C0060091BD060093BE0605E50093C90600E00093D2060093C3060093C10690
:205FC0000895C498969ADF9A939A00EA0ABB00EF07BB0FEF04BB01BB02EA0FBD09E00EBDAD
:205FE00000E00BBD0ABD09BD08BD04E005BD00E004BD00E409BF00E000BD07E609B900E088
:206000000AB9919806E800BD09E001BD789408958A93FA93EA933A922A921A920A927A9395
:206020006A935A934A933A932A931A930A938FB7A895EDE1F6E0008111810F5F1F4F00832C
:206040001183EFE1F6E0008103950083E8E1F6E0008103950083E2E2F6E0008103950083F9
:20606000E5EAF6E000810395008300912E06002311F40E94B01B00912E06053120F000E09A
:2060800000932E0604C0EEE2F6E00395008300911F06093240F10091C306013079F00FE0AF
:2060A000009375060091C3060230A0F000917606003190F000E00093760612C0009175062B
:2060C000003120F000E00093750604C0E5E7F6E0039500830FE0EFCFE6E7F6E003950083A5
:2060E00000E000931F06EDE1F6E020813181213D3340D8F1EDE6F6E00081039500830536F7
:2061000018F00AE000936D06009119060A3F20F4E9E1F6E00395008300912106043620F4B9
:20612000E1E2F6E00395008300919206083C20F4E2E9F6E003950083E0E7F6E0008104FD4F
:2061400005C0ECE1F6E0008103950083EAECF6E0008103950083E1E7F6E0008100610083F0
:2061600000E0EDE1F6E00083018300911C060C3380F0E0E7F6E0008104FD08C0EAE1F6E0AA
:20618000008111810F5F1F4F0083118300E000931C068FBF0991199129913991499159918A
:2061A000699179910990199029903990E991F991899118950AE31BE0E0E6F6E000831183B1
:2061C00004E60093200602E30093780600E000932D06009369060093570600936B060093F7
:2061E0005A060093560610E0EBE5F6E0008301830093C506009328060093D206E1E1F6E091
:206200000083018320E0E3E1F6E000830183028303830093C3060093C4060093D306009313
:20622000CA060093210600937006E1E7F6E00081057A008308EC009318060AE00093220660
:206240001093190610936D0610931C06EDE1F6E010831183EAE1F6E0108311831093A106C4
:20626000E6E9F6E0108311831093A2061093A3061093A0061093A5061093A6061093A70685
:206280001093A8061093A4061093A9061093AA06E8E9F6E010831183EAE9F6E0108311831D
:2062A000ECE9F6E01083118300E315E7E6E6F6E000831183EEE6F6E020832183EEE9F6E0D6
:2062C000208321832093AF06EBEAF6E02083218320939506209317062093B0060C942604CC
:2062E000980101501040232BD9F7089501C0A895980101501040232BD1F7089500917706B0
:206300000D3320F000E0009377060895E7E7F6E00395008308959A938A93E0EFF5E00681CF
:2063200003FF10C0F89488E592E0C49A04EF11E0DDDFC49802E310E0D9DF0197082F092B36
:20634000A1F778948991999108950E949333C801D90144245524E0EFF5E0068104FF0FC0CF
:20636000F894C49A8C01C2DFC4988C01BFDF01E0400E00E0501E4A165B0698F37894E6E0E3
:206380000C94A03324EF31E008EC10E0DEDF24EF31E000E911E0D9CF24EF31E00CE211E01C
:2063A000D4DF20E931E000E911E0CFDF20E931E00CE211E0CADF24EF31E000E911E0C5CF54
:2063C00020E931E000E911E0C0DF2CE231E00CE211E0BBDF20E931E000E911E0B6DF2CE2FB
:2063E00031E00CE211E0B1CF24EF31E000EF10E0ACDF2CE231E00CE211E0A7DF24EF31E0F7
:2064000000EF10E0A2DF2CE231E00CE211E09DCF24EF31E004EB10E098DF24EF31E00CE226
:2064200011E093CFE2EDF6E0008100FF07C000E00093D2060E94260401E0089500E008950B
:20644000E1E7F6E0008104FF55C00091E0060093E106053018F400E00093E1066BDBE8ED5E
:20646000F6E000811181EAEDF6E000831183E4E2F6E00081118120E0E3E1F6E04081518193
:2064800062817381400F511F621F721F40835183628373838A019B0148E651E060E070E0CC
:2064A0000E940433E1E1F6E000831183980121363A4E38F000E0E3E1F6E0008301830283AE
:2064C0000383E5E9F6E0008103950083E9E6F6E0008103950083EBE6F6E000810395008372
:2064E000E1E7F6E000810F7E0083E0EAF6E0008103950083089507E30DBF01E00EBFC0EC84
:20650000D0E00E94AD33002311F00E94BD330E949D2E0E94D7330C94D733E199FECF0895EC
:206520004F5F5F4FFADF4EBB5FBBE09A0895FADF0DB308954F5F5F4F4EBB5FBBF894E29A2F
:20654000E19A0FBE08950FB6E8DF0DBBF5CF0024E8E0EA9532F0001F001C0416D0F3041A7B
:20656000F8CF001F402D00950895002411240030010741F01695079510F4040E151E440FF1
:20658000551FF5CF002D112D08954A951AF0000F111FFBCF089500241124EFE0001F111FB5
:2065A000001C111C0416150610F0041A150AEA95AAF7001F111F402D512D009510950895EF
:2065C0000024112422243324E02FE12BE22BE32B71F0369527951795079520F4040E151E06
:2065E000261E371E440F551F661F771FEDCF002D112D222D332D08954A952AF0000F111F75
:20660000221F331FF9CF08950024112422243324E0E2EA9592F0001F111F221F331F001CCB
:20662000111C221C331C041615062606370688F3041A150A260A370AECCF001F111F221F8E
:20664000331F402D512D622D732D009510952095309508955FD0702D5DD0602D5BD0502D4F
:2066600059D0402D57D0102C01FA54D0202C52D0302C0895F5DF041B10E003C0EFDF041B08
:20668000150B20E030E005C0E5DF041B150B260B370BE0F010FC1DC03DD0402D3BD0E00F62
:2066A000F11F0417100540E02407340778F446F4C895002D0024E22DF32DE01BF009099400
:2066C000E00FF11F27D0202C25D0302CE22DF32D099411F4BEF7ECCF31960EF0319650E02A
:2066E00060E070E017D0402D4B3F68F079F34F3F41F04E3F21F00ED0702D0CD0602D0AD04D
:20670000502D08D0402D041B150B260B370B11F3E8F2E2CFC89531960895BA92AA929A9201
:206720008A927A926A925A924A92BA93AA939A938A930895BB84AA84998488847F806E8079
:206740005D804C80BB81AA8199818881F0E00FB6F894CE0FDF1F0FBE089501E0089520E022
:2067600002D0E9F708952D9301501040202F212B08952591F8DFE9F7089584EB97E6FC013E
:2067800005911491FC013296A591B491FC01349625913491422F432B19F0F901EADF01C0D0
:2067A000DEDF069617E6803C910748F3089500008895FECFCC043801C0672801040600000A
:2067C000435552204C494D49540043555252454E5420200020417400204D6E0020417574D3
:2067E00000204D616E00444953434841524745002020204E4F2D55534500202020202041DB
:2068000055544F0053544F524147450046415354204348470042414C414E43450043484199
:20682000524745004375742D4F666600496E70757420506F776572204C6F770042757A7ACC
:206840006572004B65792042656570002800306D416800306D696E0054656D7020437574D8
:206860002D4F666620005553422020202020202000456E61626C6500204F4E004F4E200025
:206880004F464600202044656661756C74006D562F43656C6C00200050622000444348479E
:2068A0003E434847002020202020202020004359434C4500204155544F00204241545400B4
:2068C00020205062004E694364004E694D4800202020202020200050524F4752414D2053B1
:2068E000454C454354202000332E335600332E365600332E3756004C694665004C69496F59
:20690000004C69506F0054454D50200043415041200054494D452000454E44202000465577
:206920004C4C20002020202020004361706163697479204375742D4F6666002020202000BD
